```bash
IP 127.0.0.1.60094 > 127.0.0.1.23: Flags [S], seq 565527931, win 65495, options [mss 65495,sackOK,TS val 3608949259 ecr 0,nop,wscale 7], length 0
	0x0000:  4510 003c 5e92 4000 4006 de17 7f00 0001
	0x0010:  7f00 0001 eabe 0017 21b5 457b 0000 0000
	0x0020:  a002 ffd7 fe30 0000 0204 ffd7 0402 080a
	0x0030:  d71c 320b 0000 0000 0103 0307

```
![[图片：3.2TCP头部结构.png]]
- **源 IP 地址和端口:** `127.0.0.1.60094` 表示源 IP 是本地环回地址 `127.0.0.1`，源端口是 `60094`。这是一个客户端发起的连接，通常会使用一个临时的端口号。
- **目标 IP 地址和端口:** `127.0.0.1.23` 表示目标 IP 是本地环回地址 `127.0.0.1`，目标端口是 `23`，这是 Telnet 服务的默认端口。
- **`Flags [S]`**: 这表示 TCP 头部中的 **SYN (Synchronize)** 标志被设置。这是 TCP 三次握手的第一步，表示发起方想要建立一个新的连接。
- **`seq 565527931`**: 这是 **序列号 (Sequence Number)** 字段的值。在 SYN 包中，这是一个 **初始序列号 (ISN)**，用于后续的数据传输中的顺序控制。
- **`win 65495`**: 这是 **窗口大小 (Window Size)** 字段的值，表示发送方（源主机上的 TCP 协议栈）当前愿意接收的最大字节数是 65495。
- **`options [mss 65495,sackOK,TS val 3608949259 ecr 0,nop,wscale 7]`**: 这是 **选项 (Options)** 字段，包含了多个 TCP 选项：
    - **`mss 65495` (Maximum Segment Size):** 发送方声明它能够接收的最大 TCP 数据段的大小是 65495 字节。这个值通常会考虑到下层 IP 协议的 MTU。对于环回接口，由于 MTU 很大，MSS 也相应较大。
    - **`sackOK` (Selective Acknowledgment Permitted):** 发送方声明它支持选择性确认 (SACK)。SACK 允许接收方精确地确认已接收到的数据块，有助于在丢包时提高重传效率。
    - **`TS val 3608949259 ecr 0` (Timestamps):** TCP 时间戳选项。`val` 是发送方当前的时间戳值，`ecr` (echo reply) 是上一次接收到的时间戳值（在 SYN 包中通常为 0）。时间戳用于测量往返时间 (RTT) 和防止序列号回绕问题。
    - **`nop` (No-Operation):** 这是一个填充选项，用于对齐其他选项。
    - **`wscale 7` (Window Scale):** 窗口缩放因子。实际的接收窗口大小是 `win` 字段的值乘以 27。这允许 TCP 使用大于 65535 字节的窗口，提高了在高带宽网络上的性能。